:020000040800F2
:1000000098A600202D03000807630008634D000830
:10001000056300088D070008498B000800000000F8
:10002000000000000000000000000000690200085D
:10003000E109000800000000C5020008F569000899
:100040004703000847030008470300084703000868
:1000500047030008836400084703000847030008BB
:10006000470300084703000847030008DD080008AD
:10007000E908000847030008F5080008010900081E
:100080000D0900084703000847030008470300085C
:1000900091070008470300084703000847030008CA
:1000A0004703000847030008470300084703000808
:1000B00047030008470300084703000847030008F8
:1000C00047030008714D0008654D0008470300080C
:1000D00047030008B56F000847030008D56F000804
:1000E00047030008470300084703000847030008C8
:1000F000B96A000847030008470300081909000807
:1001000047030008470300084703000847030008A7
:100110004703000847030008470300084703000897
:1001200047030008250900083109000847030008B3
:100130004703000847030008470300084703000877
:10014000470300089D0700084703000809630008EB
:10015000470300084703000847030008E16F000851
:100160004703000847030008470300084703000847
:100170004703000847030008470300080000000089
:10018000470300084703000800F002F800F05CF89D
:100190000AA090E8000C82448344AAF10107DA45E2
:1001A00001D100F051F8AFF2090EBAE80F0013F0D8
:1001B000010F18BFFB1A43F00103184758CB00008A
:1001C00078CB00000A444FF0000C10F8013B13F00C
:1001D000070408BF10F8014B1D1108BF10F8015BA0
:1001E000641E05D010F8016B641E01F8016BF9D193
:1001F00013F0080F1EBF10F8014BAD1C0C1B09D1EA
:100200006D1E58BF01F801CBFAD505E014F8016B5B
:1002100001F8016B6D1EF9D59142D6D370470000ED
:100220000023002400250026103A28BF78C1FBD8FF
:10023000520728BF30C148BF0B6070471FB50CF094
:10024000A7FA1FBD10B510BD00F0D2F91146FFF797
:10025000F5FF09F025FE00F0F0F903B4FFF7F2FF17
:1002600003BC00F0F7F900002C4B19680868B0E8EF
:10027000F04F80F30988BFF36F8F4FF0000080F3D9
:10028000118870470000000008480068006880F38B
:1002900008884FF0000080F3148862B661B6BFF39F
:1002A0004F8FBFF36F8F00DF00BF00BF08ED00E08E
:1002B000DFF80C00016841F470010160704700BF75
:1002C00088ED00E0EFF30980BFF36F8F134B1A68DE
:1002D0001EF0100F08BF20ED108A20E9F04F1060CB
:1002E00009B44FF0500080F31188BFF34F8FBFF374
:1002F0006F8F0BF0E9FC4FF0000080F3118809BC10
:1003000019680868B0E8F04F1EF0100F08BFB0EC95
:10031000108A80F30988BFF36F8F7047B400002004
:10032000EFF305807047000040BA704709488047E6
:1003300009480047FEE7FEE7FEE7FEE7FEE7FEE7C7
:10034000FEE7FEE7FEE7FEE704480549054A064BDF
:1003500070470000A96A000889010008989A0020E7
:1003600098A60020989E0020989E002053EA020C38
:1003700000F069802DE9F04B4FF00006002B1FBF05
:10038000B3FA83F503FA05F424FA05F65E4012BFCA
:100390001643B2FA82F502FA05F4C5F120051EBF34
:1003A00022FA05FC44EA0C04203556EA044C4FEAD4
:1003B000144418BF641C4FF000084FF0000990422D
:1003C00071EB030C39D3002919BFB1FA81F701FA97
:1003D00007F6B0FA80F700FA07F6C7F120071EBF4C
:1003E00020FA07FC46EA0C062037B6FBF4FCA7EB24
:1003F0000507103F07F01F0BCBF120060CFA0BFB93
:100400002CFA06F644BFB3460026202FA4BF5E4652
:100410004FF0000B5BEA060C08BF4FF0010B19EB25
:100420000B09ABFB027C48EB0608C01B06FB02CCA9
:100430000BFB03CC71EB0C01C1E70B4602464146B6
:100440004846BDE8F08B13B54FF000004FF00001B7
:10045000AFF30080BDE81C407047032A40F23080B3
:1004600010F0030C00F0158011F8013BBCF1020FF5
:10047000624498BF11F801CB00F8013B38BF11F876
:10048000013BA2F1040298BF00F801CB38BF00F88D
:10049000013B11F0030300F07980083AC0F00880B6
:1004A00051F8043B083A51F804CBA0E80810F5E7EE
:1004B000121D5CBF51F8043B40F8043BAFF30080D1
:1004C000D20724BF11F8013B11F801CB48BF11F846
:1004D000012B24BF00F8013B00F801CB48BF00F816
:1004E000012B704702F0FF0343EA032242EA024273
:1004F00000F002B84FF000020429C0F0128010F0A2
:10050000030C00F01B80CCF1040CBCF1020F18BFEF
:1005100000F8012BA8BF20F8022BA1EB0C0100F082
:100520000DB85FEAC17C24BF00F8012B00F8012B55
:1005300048BF00F8012B70474FF0000200B513468A
:1005400094469646203922BFA0E80C50A0E80C50F3
:10055000B1F12001BFF4F7AF090728BFA0E80C50A4
:1005600048BF0CC05DF804EB890028BF40F8042B9D
:1005700008BF704748BF20F8022B11F0804F18BF0A
:1005800000F8012B704770477047704710B5203A4C
:10059000C0F00B80B1E81850203AA0E81850B1E83C
:1005A0001850A0E81850BFF4F5AF5FEA027C24BFF2
:1005B000B1E81850A0E8185044BF18C918C0BDE8E9
:1005C00010405FEA827C24BF51F8043B40F8043BB2
:1005D00008BF7047D20728BF31F8023B48BF11F867
:1005E000012B28BF20F8023B48BF00F8012B7047C1
:1005F000754600F02BF8AE4605006946534620F0DC
:100600000700854618B020B5FFF79EFEBDE82040E4
:100610004FF000064FF000074FF000084FF0000BBE
:1006200021F00701AC46ACE8C009ACE8C009ACE871
:10063000C009ACE8C0098D46704710B50446AFF359
:1006400000802046BDE81040FFF707BE0048704715
:10065000389A002001491820ABBEFEE726000200B0
:1006600070470000464910B54A6822F440324A609B
:100670004A6843681A434A6001684A6822F48072F3
:100680004A6001684A68036942EA03224A600168D5
:100690004A6822F040724A6001684A6883681A43D7
:1006A0004A6001688A6822F400628A6001688A6888
:1006B000C3681A438A60816A6FF07062D142016830
:1006C0008A6822F070628A6001688A680CD0836A46
:1006D0001A438A6001688A6822F040528A60016881
:1006E0008A68C36A1A4301E022F040528A600168B6
:1006F0008A6822F002028A6001688A68037E42EA00
:1007000043028A6090F82010002901684A680FD0DF
:1007100042F400624A6001684A6822F460424A601A
:1007200001684A68174C436A04EB43331A4301E0FB
:1007300022F400624A600168CA6A22F47002CA6246
:100740000168CA6A838B104C04EB03531A43CA62D4
:1007500001688A6822F400728A6001688A6890F8E9
:10076000303042EA43228A6001688A6822F480625B
:100770008A6001688A68406942EA8020886010BD0A
:100780000023014000E0FFFF0000F0FFFEE7000053
:10079000014800F030BF000068020020014800F06E
:1007A0002ABF00009002002038B5042848DD254CFF
:1007B000202802D0212843D131E08A78088862F3CA
:1007C0001F40CA7840EA026525600A7922714B7998
:1007D00063718879A071009029461B480BF042F89C
:1007E00008B100F083FBA079009063792279174863
:1007F00021680BF037F808B100F078FB02221448AA
:1008000021680AF0DBFF08B100F070FB10221148EC
:1008100021680AF0D3FF98B100F068FB10E020785F
:1008200008702088000A48702068000C88702068D2
:10083000000EC8702079087160794871A0798871BC
:10084000002038BD88000020E4040020740500204A
:1008500068020020900200200020704710B500229E
:100860000849094806F0B2FD0849074806F0A1FD0D
:1008700008F08EFA08F0C0F90146034806F099FD29
:10088000002010BD6014002084070020600C0020B0
:1008900010B50C4608F0B2FA68B10C2009F080FAE5
:1008A00008F0AAF901460B4806F083FD094806F056
:1008B00059FD012010BD208880B208F00DFB08F022
:1008C0009BF90146034806F074FD024806F04AFD14
:1008D000002010BD8407002000207047014801F06F
:1008E000E5B9000024040020014801F0DFB9000050
:1008F0001C060020014801F0D9B900000C030020BB
:10090000014801F0D3B900007C060020014801F045
:10091000CDB9000084040020014801F0C7B90000EF
:100920006C030020014801F0C1B90000DC06002082
:10093000014801F0BBB90000BC0500200168182384
:10094000CAB2103AB2FBF3F2054B6FF30901032A66
:100950009B5CC36500D9091D81650846704700008E
:1009600028C9000810B5014600208B698A6A4FF03B
:10097000C07453B1B3F5005F15D072B1012A0CD029
:10098000022A0AD0032A09D104E01AB1012A06D0AA
:10099000022A03D1C96AC90100D5012010BDC96A64
:1009A000A142FAD010BD002AF7D0012AF2D0022AC3
:1009B000F3D0032AF3D010BD30B50468256825F4C0
:1009C00080252560046863608368402B036803D03A
:1009D00099600068C26030BD9A600068C16030BD37
:1009E00070472DE9FC5F054688461446994608F095
:1009F000BDF810B10020BDE8FC9F18212046FFF78C
:100A00009BFD0020A06020606060B8F1090F01DA52
:100A1000401EF0E7A8780006E97840EA014029790D
:100A200040EA0120697940EA0106C6F3800AC6F36C
:100A3000400BBAF1000F01D0042000E00020A060BC
:100A4000BBF1010F01D1022000E00020E060A068AE
:100A500038B940F2FF7000EA565020600020606014
:100A60000BE040F2FF7202EA5650C6F3D10141EAB0
:100A7000804262600022226000BFA8792061206964
:100A8000082802D94FF0FF30B5E707200190A8F100
:100A90000900009021690098814201D8206900E096
:100AA0000098C7B20020C9F80000C9F80400002F60
:100AB00005DD019829183A464846FFF7CEFCE06864
:100AC000022803D1002F01DD00202061002092E7E1
:100AD0002DE9F04705460F4614461E4608F046F835
:100AE00010B10020BDE8F08718212046FFF724FD53
:100AF0000420A0600020E06020606060082F01DA20
:100B0000401EEFE7A8780006E97840EA014029791D
:100B100040EA0120697940EA0109C4F80490002004
:100B20002060082020614FF00608002030607060CF
:100B300005EB080001683160406870600020D1E773
:100B40002DE9F04105460C46164608F00FF810B1A5
:100B50000020BDE8F081002714213046FFF7CAFCD1
:100B6000224629463046FFF778FC27463846F0E70C
:100B70002DE9F04705460F4614461E4607F0F6FFDE
:100B800010B10020BDE8F0874FF000081821204682
:100B9000FFF7D2FC0420A0600020E06020606060CD
:100BA000082F01DA401EEDE7A8780006E97840EA50
:100BB0000140297940EA0120697940EA010AC4F834
:100BC00004A000202060082020614FF006090020CA
:100BD0003060706005EB090001683160406870604A
:100BE0004046CFE72DE9F04105460C46164607F092
:100BF000BDFF10B10020BDE8F08100271421304670
:100C0000FFF778FC224629463046FFF726FC2746A8
:100C10003846F0E72DE9F84F06468946154607F0B5
:100C2000A5FF10B10020BDE8F88F0020009000243F
:100C3000002700BF03E000212954411CC8B214283A
:100C4000F9DB6048007802286AD141222146601C05
:100C5000C4B26A5454222046611CCCB22A54B068F3
:100C6000042801D1012000E000208246F06802281B
:100C700001D1012000E000208346B06830B93088FF
:100C8000400540EA4B0040EA8A070DE07268C2F373
:100C90008A407268C2F31101420542EAC10242EA87
:100CA0004B0242EA8A0700BF380E2146621CD4B2CA
:100CB0006854C7F307422046611CCCB22A54C7F3DC
:100CC00007222046611CCCB22A542146601CC4B2C3
:100CD0006F543069082801D9082000E0306900F01D
:100CE000FF082046611CCCB205F80080B8F1000F67
:100CF0000ADDB9F1000F07D0281942464946FFF72F
:100D0000ACFB04EB0800C4B20D222046611CCCB23F
:100D10002A540A222046611CCCB22A5400944EE088
:100D20002848007801284AD145222046611CCCB2CF
:100D30002A5454222046611CCCB22A54B06804289C
:100D400001D1776804E04FF0FF30009000986AE727
:100D5000390E2046621CD4B22954C7F307422046FC
:100D6000611CCCB22A54C7F307222146601CC4B2CE
:100D70006A542046611CCCB22F543069082801D92E
:100D8000082000E0306900F0FF08B8F1000F0ADD2C
:100D9000B9F1000F07D0281942464946FFF75DFB1D
:100DA00004EB0800C4B20D222046611CCCB22A54C8
:100DB0000A222046611CCCB22A54009400BF00983D
:100DC00031E70000C90100202DE9F04706468946B9
:100DD000154607F0CBFE10B10020BDE8F0874FF0BC
:100DE000000A00240027002003E000212954411CB0
:100DF000C8B21428F9DB45222046611CCCB22A5423
:100E000054222046611CCCB22A54B068042801D177
:100E1000776803E04FF0FF3A5046DEE7380E214690
:100E2000621CD4B26854C7F307422046611CCCB29E
:100E30002A54C7F307222046611CCCB22A5420460C
:100E4000611CCCB22F543069082801D9082000E079
:100E5000306900F0FF08B8F1000F0ADDB9F1000FAA
:100E600007D0281942464946FFF7F7FA04EB080075
:100E7000C4B20D222046611CCCB22A540A2220465C
:100E8000611CCCB22A54A2465046A6E72DE9F04197
:100E900005460C46164607F069FE10B10020BDE875
:100EA000F081002714213046FFF724FB2246294613
:100EB0003046FFF7D2FA27463846F0E72DE9F041F1
:100EC00005460C46164607F051FE10B10020BDE85D
:100ED000F081002714213046FFF70CFB22462946FB
:100EE0003046FFF7BAFA27463846F0E772B6FEE713
:100EF00078B50024009490F83C20012A19D00122F2
:100F000080F83C200A6807230568092A13D9EE688F
:100F10000A3A02EB420293409E43EE600B788A68E5
:100F20000A3B03EB43039A400368DD682A43DA6017
:100F300010E0022078BD2E6902EB420293409E43EE
:100F40002E610B788A6803EB43039A4003681D699E
:100F50002A431A614A681F23072A13D205686E6B59
:100F6000521E02EB820293409E436E630B790A8805
:100F70005B1E92B203EB83039A4003685D6B2A43C6
:100F80005A6327E005680D2A12D22E6BD21F02EB9E
:100F9000820293409E432E630B790A88DB1F92B234
:100FA00003EB83039A4003681D6B2A431A6311E025
:100FB000EE6A0D3A02EB820293409E43EE620B7999
:100FC0000A880D3B92B203EB83039A400368DD6A03
:100FD0002A43DA62164B0568144A9D4206D10D6811
:100FE000122D03D1556845F48005556005689D4272
:100FF00018D10B68102B01D0112B13D1536843F477
:1010000000035360096810290CD10A490A4A09688B
:10101000B1FBF2F101EB8101490000E0491E0091B2
:101020000029FBD180F83C40002078BD002301401E
:1010300000200140B000002040420F00006C7047CB
:101040000068C06C704770B504004FF0000503D015
:10105000206C002610B107E0012070BD204600F092
:101060001DF8666484F83C60206CC00610D4206CC7
:1010700020F4885040F0020020642046FFF7F2FA86
:101080006664206C20F0020040F00100206400E063
:10109000012584F83C60284670BD000070B586B01C
:1010A000044614216846FFF747FA1D491B4E256880
:1010B00000231B4A143903241A48B54211D115687C
:1010C00045F480751560126802F4807205920A6812
:1010D00042F002020A60096801F002010591012153
:1010E00013E0114EB54216D1156845F40075156030
:1010F000126802F4007205920A6842F002020A6065
:10110000096801F0020105910221CDE90014029362
:10111000694601F003F806B070BD000000200140F0
:101120004438024000040240002101402DE9F04112
:10113000044600680D4681684FF0000749050BD54D
:101140008068C00508D5206C40F02000206484F839
:101150003C700120BDE8F08101F0E6F8064613E09E
:10116000681C11D025B101F0DFF8801BA8420BD913
:1011700020680068800707D4206C40F004002064D9
:1011800084F83C700320E5E7206800688007E7D515
:1011900021686FF012000860206C40F40070206439
:1011A0002068816811F0405F13D1217E89B9C16A3E
:1011B00011F4700F02D0806840050AD4206C20F42E
:1011C00080702064206CC00403D4206C40F00100C7
:1011D00020640020BEE7000018B50021009190F8BF
:1011E0003C20012A07D0012280F83C200268936845
:1011F000DB0702D011E0022018BD936843F0010321
:1012000093602E4A2E4B1268B2FBF3F202EB4202BD
:1012100000E0521E0092002AFBD102689368DB07AF
:1012200042D0036C40F20164A34343F4807303642F
:1012300053685B0505D5036C23F4005343F48053D6
:101240000364036CDB0404D5436C23F0060343649E
:1012500000E0416480F83C101A496FF022031360EB
:1012600049680068CA06184906D0884224D18168B6
:1012700011F0405F13D01FE08842F8D0134A90422B
:1012800003D1D1F80423D206F1D0114A904213D1F0
:10129000D1F8041301F01F011029E8D30CE0816894
:1012A00041F08041816007E0016C41F01001016470
:1012B000416C41F001014164002018BDB0000020E4
:1012C00040420F0000230140002001400021014066
:1012D0000022014090F82020012A07D0022A05D0E0
:1012E000416A41F4802141620120704700684269EF
:1012F0000A43426100207047F0B590F8205004681E
:10130000A468012D05D0022D03D0416A41F480214B
:1013100057E014F0406F01D1E5004FD5C4F30164EC
:101320000125A5401D608D684FF4C0739DB1CE6846
:1013300035434E6845EAC605066803EB0417F551C8
:101340004FF4C275076805EB04150E697E51097DDF
:10135000012905D009E00E88CD6845EA4655EBE73E
:1013600001684E5946F480764E511179D5795679F7
:1013700041EA056195792D0445EA062529434FF494
:10138000C676056806EB0416A9511178D57841EAAE
:101390000561957852782D0445EA022211434FF4F5
:1013A000C475026805EB04155151006803EB041184
:1013B000425842F0010242500020F0BD416A41F41F
:1013C000001141620120F0BD10B590F82020012AE3
:1013D00007D0022A05D0416A41F4802141620120F0
:1013E00010BD3B48D0F8002242F00102C0F80022B4
:1013F000D0F8002222F47C52C0F80022D0F800225B
:101400004B6A42EA0322C0F800220A7D02F01F0361
:1014100001229A40D0F81C329343C0F81C32CB69A9
:10142000B3B9D0F80C329343C0F80C328C894B68B6
:1014300064F31F434C6900EBC404C4F840320C89C8
:101440000B6864F31F434C6900EBC404C4F84432D6
:10145000CB69012B16D1D0F80C321343C0F80C32F3
:101460000C884B6864F31F434C6900EBC404C4F858
:1014700040320C89CB6864F31F434C6900EBC40411
:10148000C4F844328B69002BD0F804320ED01343D9
:10149000C0F804320B69002BD0F8143208D0134383
:1014A000C0F81432096A012904D008E09343EFE739
:1014B0009343F5E7D0F81C121143C0F81C12D0F882
:1014C000001221F00101C0F80012002010BD000040
:1014D00000640040704770B590F82040012C05D0A2
:1014E000022C03D0416A41F4802128E0046809B34A
:1014F0002469A40720D04FF4D874056804EB0114C4
:101500002D5915F00405956005682D591AD0ED0880
:10151000556005682C5904F00204D4604FF4DA7465
:10152000056804EB01142E5906F00F06082E0CD3A3
:1015300008250DE0E468DCE7416A41F400114162EE
:10154000012070BD6D0D1560E3E72D5905F00F0505
:10155000156105682D59C5F30725956105682C5956
:10156000240C54614FF4DC72046802EB0112A4589D
:101570001C700468A458240A5C700468A458240CE5
:101580009C700468A258120EDA704FF4DE72046880
:1015900002EB0112A4581C710468A458240A5C715F
:1015A0000468A458240C9C710468A258120EDA71C5
:1015B000006829B1016941F020010161002070BD7E
:1015C000C16841F02001C160F8E70246002092F8AE
:1015D0002010012901D002290CD111688A6852011A
:1015E00000D501208A68120100D5401C8968C90015
:1015F00000D5401C70472DE9F05F054600680024C7
:101600004669D0F804908768D0F80CB0D0F810A0E4
:10161000D0F81880F10748D0F90714D00121816073
:10162000B80703D5284600F086FA0CE0780702D503
:101630004FF4006407E0380702D54FF4805402E00D
:10164000284600F077FAF80516D529684FF480701F
:101650008860B80503D5284600F06FFA0CE07805DD
:1016600002D544F4005407E0380502D544F4804420
:1016700002E0284600F060FAF80316D529684FF416
:1016800080308860B80303D5284600F058FA0CE093
:10169000780302D544F4004407E0380302D544F44B
:1016A000803402E0284600F049FA300707D55FEAA7
:1016B000CB6004D52968102044F40074C86070071A
:1016C0004FF0080707D55FEA0B7004D52868C7609C
:1016D000284600F09DF9B00706D52868C068800745
:1016E00002D0284600F095F9700607D55FEACA6077
:1016F00004D52968102044F480640861B00607D539
:101700005FEA0A7004D528680761284600F09AF954
:10171000F00606D528680069800702D0284600F048
:1017200092F9B00308D55FEAC96005D52968102091
:101730004860284600F0A0F9F00307D55FEA097079
:1017400004D528684760284600F0FAF9300446D5E9
:101750005FEA497040D5F00504D55FEAC87001D052
:1017600044F00104B00504D55FEA887001D544F067
:101770000204700504D55FEA487001D544F0040402
:10178000300529D518F0700F26D008F070004028D9
:1017900015D006DC102809D020280AD0302816D110
:1017A0000AE050280ED0602811D10EE044F0080461
:1017B0000DE044F010040AE044F0200407E044F097
:1017C000400404E044F0800401E044F4807428689C
:1017D000816921F070018161296804204860002C32
:1017E00005D0686A204368622846FFF773FEBDE8AB
:1017F000F09F70B5040003D094F8200010B104E00D
:10180000012070BD204600F081F82068016841F099
:101810000101016000F088FD0546052604E000F0A6
:1018200083FD401B0A2811D820684068C007F6D005
:101830002068016821F00201016000F075FD054695
:101840000BE000F071FD401B0A2806D9606A40F4E5
:101850000030606284F82060D2E72068406880072A
:10186000EFD4207E0128206801683DD021F080015E
:101870000160607E01282068016838D021F04001B5
:101880000160A07E01282068016833D021F020018A
:101890000160E07E0128206801682ED041F010012F
:1018A0000160207F01282068016829D021F008010B
:1018B0000160607F01282068016824D021F00401C4
:1018C0000160D4E902010843D4E90412114308433A
:1018D0006168491E08432168C861002060620120D8
:1018E00084F82000002070BD41F08001C0E741F085
:1018F0004001C5E741F02001CAE721F01001CFE720
:1019000041F00801D4E741F00401D9E72DE9F043A3
:1019100087B0044614216846FEF70EFE384B39485E
:10192000DFF8D8801968D4F800C0364A02250326AB
:101930000927DFF8D49010300024491CC44524D175
:101940001960012907D1016841F000710160006848
:1019500000F000700590106840F002001060106800
:1019600002AB00F0020005904FF44070CDE9000595
:1019700083E8D0006946484600F0D0FB00220521EC
:10198000142001F0F7F9142033E0DFF88080C4451B
:1019900031D1D0F800C04CF0806CC0F800C0D0F855
:1019A00000C001290CF0806CCDF814C0196007D17B
:1019B000016841F000710160006800F0007005905E
:1019C000106840F002001060106802AB00F00200E6
:1019D00005904FF44050CDE9000583E8D0006946FA
:1019E000484600F09BFB00220521412001F0C2F98E
:1019F000412001F0B2F907B0BDE8F0830064004077
:101A0000000000203038024000040240006800401E
:101A1000704770B5054607F0B3F8044607F0C4F800
:101A20000246234600212846FFF755FD002808D12D
:101A300007F02CFA002804D0BDE87040182008F008
:101A4000AFB970BD704770B5054607F099F8044608
:101A500007F0AAF80246234601212846FFF73BFD7E
:101A6000002808D107F012FA002804D0BDE8704021
:101A7000182008F095B970BD7047000070B5044695
:101A800090F82000012804D0606A40F400206062D1
:101A900018E0022084F820002068016821F001018C
:101AA000016000F041FC05460EE000BF00F03CFC88
:101AB000401B0A2808D9606A40F4003060620520A3
:101AC00084F82000012070BD20684068C007EDD177
:101AD000606270BD70B5044690F82000022804D002
:101AE000606A40F48010606214E02068016841F090
:101AF0000101016000F018FC05460DE000F014FC47
:101B0000401B0A2808D9606A40F400306062052052
:101B100084F82000012070BD20684068C007EDD027
:101B20002068016821F002010160012084F8200092
:101B3000002070BD7047704770477047704770470E
:101B4000704710B5040002D0607910B106E00120A2
:101B500010BD00202071204600F004F801206071C3
:101B6000002010BD08B500680649884208D1064823
:101B7000016841F480510160006800F480500090D9
:101B800008BD000000300240303802402DE9F0412D
:101B90000446876D00F0C8FB064694F83500002522
:101BA000022806D08020606584F834500120BDE80A
:101BB000F0812068016821F0160101602068416908
:101BC00021F080014161206C08B9A06C20B120682F
:101BD000016821F0080101602068016821F001011D
:101BE00001600CE000F0A0FB801B052807D9202035
:101BF0006065032084F8350084F83450D7E7206806
:101C00000068C007EED194F85C103F208840B860AF
:101C1000012084F8350084F834500020C7E790F89C
:101C20003510022903D0802141650120704705212C
:101C300080F835100068016821F001010160002082
:101C4000704770B504002BD094F83500022826D0D8
:101C50002068016821F0010101602068002505600D
:101C600020684560206885602068C560206805613F
:101C70002168212048612046FEF760FEE563256467
:101C80006564A564E564256594F85C203F21914076
:101C90008160656584F8355084F83450002070BD4B
:101CA000012070BD90F83500704700002DE9F84321
:101CB00004464FF00009CDF8009063484FF41651E8
:101CC000A56D0068B0FBF1F72E6894F85C10082051
:101CD00000FA01F131420FD021680A6852070BD592
:101CE0000A6822F004020A6094F85C108840A86038
:101CF000606D40F00100606594F85C104FF00108E1
:101D000008FA01F0304208D021684969090604D573
:101D1000A860606D40F00200606594F85C100420DB
:101D20008840304208D021680968890704D5A86036
:101D3000606D40F00400606594F85C1010208840ED
:101D4000304218D021680968090714D5A8602068B6
:101D50000168490304D50068000308D5A16C07E0B9
:101D60000168C90503D4016821F008010160216CF4
:101D700009B12046884794F85C1020208840304202
:101D800031D021680968C9062DD5A86094F83500BE
:101D900005282068016806D0490347D5006800037C
:101DA0001DD4616C1CE021F01601016020684169BE
:101DB00021F080014161206C08B9A06C20B120683D
:101DC000016821F00801016094F85C103F20884010
:101DD000A86084F8358084F83490216D1FE0E16BB1
:101DE00009B120468847606D00282BD0606DC00780
:101DF00014D0052084F835002068016821F0010125
:101E000001600098401C0090B84203D82068006828
:101E1000C007F6D184F8358084F83490E16C00294D
:101E200010D001B02046BDE8F04308470168C9055D
:101E3000D5D4016821F01001016084F8358084F860
:101E40003490CCE7BDE8F883B00000202DE9F041E4
:101E5000044600F069FA06465CB1022084F83500B9
:101E6000002584F834502068016821F001010160E8
:101E70000DE00120BDE8F08100F056FA801B052836
:101E800005D920206065032084F83500F2E720683A
:101E90000068C007F0D12268116820480140D4E9E9
:101EA00001031843D4E903363343184363691843E5
:101EB000A3691843E3691843236A18430843616A16
:101EC000042903D1D4E90B13194308431060206897
:101ED0004069666A20F0070130460E430127042856
:101EE0000CD1A06A0643E06A40B12046FEF73AFDF5
:101EF00020B14020606584F83570BAE720684661FB
:101F00002046FEF71BFD94F85C203F219140816044
:101F1000656584F835700020ACE700003F8010F064
:101F20002DE9F0410446866D90F834000025012823
:101F30000DD0012084F8340094F835700020012F72
:101F400007D084F8340002252846BDE8F08102203D
:101F5000FBE7022784F8357060652046FEF72CFD0C
:101F600094F85C103F208840B0602068016841F020
:101F700016010160206C20B12068016841F0080161
:101F800001602068016841F001010160DCE70000A8
:101F900070B5044600F0C8F90546601C02D004483C
:101FA0000078044400F0C0F9401BA042FAD370BD91
:101FB000A40000202DE9F04F0022DFF838B10126FF
:101FC0004FF00F0906FA02F401EA0403A3427DD19F
:101FD00022F003075F44D7F8088895074FEA157C7D
:101FE00009FA0CFA0AEA0805DFF80C81404502D12B
:101FF0004FF0000832E0DFF80481404502D14FF095
:1020000001082BE0DFF8F880404502D14FF00208CC
:1020100024E0DFF8F080404502D14FF003081DE0D6
:10202000DFF8E480404502D14FF0040816E0DFF805
:10203000DC80404502D14FF005080FE0DFF8D0808A
:10204000404502D14FF0060808E0DFF8C88040455F
:1020500002D14FF0070801E04FF0080808FA0CF829
:10206000A84522D12C4DD5F800C02CEA030CC5F8A8
:1020700000C005F1040CDCF800509D43CCF8005082
:10208000254D0C35D5F800C02CEA030CC5F800C06E
:102090002D1FD5F800C02CEA030CC5F800C0D7F8F6
:1020A000085825EA0A05C7F80858056857000323A9
:1020B000BB409D430560D50800EB8505D5F820C0E1
:1020C00057074FEAD76809FA08F700E00CE02CEA56
:1020D000070CC5F820C0C5689D43C5604568A54389
:1020E000456084689C438460521C102AFFF46AAFE8
:1020F000BDE8F08F003001400000024000040240C3
:1021000000080240000C024000100240001402408F
:1021100000180240001C0240003C01402DE9F84F2D
:10212000DFF8BCA10022012503264FF00F090AF1B8
:10213000040BAAF1040E00BF0B6805FA02F4234059
:10214000A34270D10F7907F00307012F01D0022FAE
:1021500016D187684FEA420806FA08FC27EA0C07FE
:10216000D1F80CC00CFA08FC4CEA070CC0F808C007
:102170004768A7430C79C4F3001494403C4344607F
:102180000C79E443A4070AD0C4684FEA420C06FA6B
:102190000CF7BC438F6807FA0CF72743C7600C792C
:1021A00004F00304022C12D1D40800EB840CDCF8F8
:1021B00020405707FF0E09FA07F824EA0804D1F86F
:1021C000108008FA07F848EA0408CCF82080046870
:1021D0004FEA420C06FA0CF7BC430F7907F00307ED
:1021E00007FA0CF7274307604C6814F4403F70D09F
:1021F0003C4C276847F480472760246822F0030797
:1022000004F480440094384C07EB040CDCF80848D4
:1022100097074FEA177809FA08F7BC43334FB842DB
:1022200002D1002724E054E0314FB84201D1012708
:102230001EE0304FB84201D1022719E02E4FB842BC
:1022400001D1032714E02D4FB84201D104270FE03C
:102250002B4FB84201D105270AE02A4FB84201D1DD
:10226000062705E0284FB84201D1072700E00827DC
:1022700007FA08F72743CCF80878DAF80040574601
:10228000D1F804C09C435FEACC2C00D51C433C60D1
:10229000DBF800405F46D1F804C09C435FEA8C2C19
:1022A00000D51C433C60DEF800407746D1F804C0FE
:1022B0009C435FEA8C3C00D51C433C60084F083FC0
:1022C0003C68D1F804C09C435FEACC3C00D51C4379
:1022D0003C60521C102AFFF42FAFBDE8F88F0000BD
:1022E000083C0140443802400030014000000240F8
:1022F0000004024000080240000C024000100240AE
:102300000014024000180240001C0240426921EA09
:1023100002030A4043EA0241816170470AB18161C8
:1023200070470904FBE7000001488068704700001F
:10233000A40000200148006870470000107AFF1FC9
:102340000148006870470000147AFF1F01480068C8
:1023500070470000187AFF1F704770472DE9F04161
:10236000016804464A694E6890F83E000025D7434C
:10237000FA0506D4F243D20503D46FF48072012526
:102380004A61B90508D4F143C90505D422686FF440
:10239000007145F002055161790525D4F143C90565
:1023A00022D4638D94F83D10226B202808D13BB9CC
:1023B000212910D029290ED0282901D1212A0AD07B
:1023C00022686FF48061516145F00405102806D041
:1023D000402804D008E0204603F09AF904E0206881
:1023E000016841F400710160380508D4F043C0056C
:1023F00005D421686FF4006045F008054861002DA0
:1024000007D0206C284320642046BDE8F04102F04C
:102410001BBDBDE8F0812DE9F0470268002153683B
:10242000C66A90F83E4090F83D50102C12D0402CD7
:1024300010D0046C002C7DD05469E443A6077AD4F4
:10244000DE43B60577D4036C03B19169BDE8F0476C
:1024500003F03AB9976951694FF42A0CC9435FEA0E
:10246000C1784FF02A4904D066452AD04E4528D07D
:1024700010E0DE43B6050DD4C16A614501D10121EA
:1024800003E0C16A494501D10821C162BDE8F047B6
:1024900002F0AEBF0E0716D4DE43B60513D4416C6E
:1024A000C9B21161416B09B1C96B29B9816B0029AE
:1024B00007D0C96B002904D00068416841F400616D
:1024C0004160BDE8F0878E0706D4DE43B60503D42D
:1024D000BDE8F04702F000BFFE43526876074FEABE
:1024E00002521DD4002AECDB0A0608D4DA43520556
:1024F00005D4490705D5BDE8F04702F091BE49076C
:10250000DFD4D9438905DCD4212D05D0402CD8D186
:10251000BDE8F04702F0B2BFBDE8F04702F03EBEB2
:10252000002ACEDB4A060BD4DA43520508D4490709
:1025300008D501E00DE00EE0BDE8F04702F0B4BDC3
:102540004907BED4D9438905BBD4BDE8F04702F0A2
:102550003EBD916970E7E10606D4D943890503D4ED
:10256000BDE8F04703F01CB92821212D27D0292DE3
:1025700025D0650655D4DD436D0552D4640752D588
:1025800090F83D30448D002C9BD01269446A227033
:10259000426A521C4262428D521E4285428D002A7E
:1025A0008FD12A2B8DD10268536823F48063536046
:1025B0002222026380F83D1000F028FB81E7250607
:1025C00023D4DD436D0520D4640720D590F83D3039
:1025D000448D002CF2D0446A24781461426A521C63
:1025E0004262428D521E4285428D002AE6D1292B3D
:1025F000E4D10268536823F48063536021220263AC
:1026000080F83D1000F003FB5BE76107D6D4D943A7
:102610008905D3D4418D0029D0D0416A0978116150
:102620000AE06107CAD4D9438905C7D4418D00297E
:10263000C4D01169426A1170416A491C4162418DDE
:10264000491E41853DE7704770B5040025D094F8D8
:102650003D00002520B984F83C50204600F058FA8F
:10266000242084F83D002068016821F00101016008
:102670002068016841F4004101602068016821F48C
:102680000041016001F08EF94D4A6168914201D824
:102690004C4900E04C49884201D2012070BD4B49B1
:1026A0002368B0FBF1F15E6826F03F060E435E60E2
:1026B0006368934206D94FF4967359434FF47A7383
:1026C000B1FBF3F12368491C1E6A26F03F06314333
:1026D00019626168914210D84900401EB0FBF1F2C6
:1026E000521CC2F30B02042A01D2042022E0B0FBE8
:1026F000F1F0401CC0F30B001CE0A268F2B301EB48
:10270000C10303EB0116431EB3FBF6F35B1C43F45A
:1027100080431B0549D092B301EBC10202EB0111CA
:10272000401EB0FBF1F0401CC0F30B0040F48040B1
:1027300040F400402168CA694CF6FF739A43104385
:10274000C861D4E9071001432068026822F0C00282
:1027500011430160D4E9030101432068826848F213
:10276000FF339A4311438160D4E90501084321688E
:10277000CA6822F0FF021043C86001E00EE016E0D4
:102780002068016841F0010101602564202084F87F
:102790003D00256384F83E50002070BD01EB4106EA
:1027A000431EB3FBF6F35B1CB3E70120C2E701EB6A
:1027B0004101401EB0FBF1F0401CC0F30B00B7E735
:1027C000A086010080841E0000093D0040420F00E9
:1027D0007047704770477047704700002DE9FF4F02
:1027E00083B09A46DDE9118793460446DDF84090B0
:1027F000FFF79AFD054694F83D00202870D1192373
:10280000012274492046009503F0A4F80028F5D170
:1028100094F83C00012863D0012084F83C00206833
:102820000168C90703D1016841F001010160206816
:10283000016821F400610160222084F83D004020FD
:1028400084F83E0000262664C4F82490A4F82A8068
:10285000608D20856048E062CDE9007553465A4698
:102860002046049902F05EFE002879D1208DD0B177
:10287000012821D00228206824D041698069009075
:10288000208D032866D801282BD0544902283B46C6
:102890004FF00002009557D08846204603F05AF8C2
:1028A00000285DD13AE020684169816900910168A2
:1028B00041F4007101607DE02068016821F48061CD
:1028C0000160F0E7016821F480610160206801681F
:1028D00041F400610160206841698069009069E00D
:1028E00075E02A463946204603F0DAF888BB54E002
:1028F0002068016841F40071016020680069616A24
:102900000870606A401C6062218D491E2185618DBE
:10291000491E618521680969017042E020680168EB
:1029200021F48061016020680069616A0870606A52
:10293000401C6062208D401E2085608D401E608599
:102940003B46002241460095204603F003F800B9BB
:10295000CEE705E02A463946204603F0A1F818B133
:10296000012007B0BDE8F08F20680069616A087037
:10297000606A401C6062208D401E81B22185608D9E
:10298000401E608520684269D243520712D4032951
:1029900003D1016821F48061016020680069616AE7
:1029A0000870606A401C6062208D401E2085608D2A
:1029B000401E6085208D00287FF462AF202084F8BF
:1029C0003D0084F83E6084F83C600020C9E70220A6
:1029D000C7E70000020010000000FFFF0400010034
:1029E0002DE9FF4F83B09A46DDE9119793460446DF
:1029F000DDF84080FFF798FC054694F83D0020285C
:102A00007FD11923012240492046009502F0A2FF00
:102A1000002876D194F83C00012872D0012084F877
:102A20003C0020680168C90703D1016841F0010139
:102A300001602068016821F400610160212084F8B0
:102A40003D00402084F83E0000262664C4F824801F
:102A5000A4F82A90608D20852C48E062CDE90075AD
:102A600053465A462046049902F0DAFD70B930E028
:102A70002A463946204603F04BF858B1206C04280A
:102A800004D12068016841F400710160012007B0A1
:102A9000BDE8F08F606A216800780861606A401CB8
:102AA0006062218D491E89B22185628D521E628528
:102AB00022685369DB435B070BD469B1007810616E
:102AC000606A401C6062208D401E2085608D401E23
:102AD0006085208D0028CBD12A463946204602F059
:102AE0000DFF0028CAD154F83D0B016841F4007174
:102AF0000160202004F81E09E67766770020C6E70B
:102B0000FFE70220C3E70000020010000000FFFF03
:102B10002DE9F04387B0064614216846FDF70CFD09
:102B200035493068884263D134480024016841F057
:102B3000020101600068694600F0020005904FF450
:102B4000406000901220CDE901040320039004208E
:102B500004902B48FFF7E2FA28481030016841F44E
:102B6000800101600068284D00F480000590254830
:102B700028604FF06067C5E901744FF48068C5E9CB
:102B800003486C614FF40039AC61C5E90749284638
:102B90006C62FFF75BF908B1FEF7A8F9B563AE63A5
:102BA000194D184860356030E5E802074020A5E877
:102BB0001101154845F814496030AC61C5E9074971
:102BC0006C62FFF743F908B1FEF790F975630022D4
:102BD00005212120AE6300F0CDF8212000F0BDF8E2
:102BE00000220521222000F0C5F8222000F0B5F8CF
:102BF00007B0BDE8F08300000058004030380240C4
:102C000000040240586002400C03002070477047E7
:102C1000024881680278114481607047A400002056
:102C20000B4810B5016841F400710160016841F47E
:102C300080610160016841F480710160032000F04F
:102C4000B9F80F2000F006F800F050F8002010BD91
:102C5000003C024030B505461F4887B0002401689B
:102C600041F080010160006806A900F0800000903A
:102C700001A800F071FE0498A8B100F093FE400096
:102C80001649174AB0FBF1F11648491E026040F29E
:102C9000E732C0E90324C0E90114846101F041FB7B
:102CA000040003D015E000F07DFEE9E70D4801F0D7
:102CB00067FB04000DD12C2000F04FF8102D07D237
:102CC000002229462C2000F055F80748056000E056
:102CD000012407B0204630BD4038024040420F007A
:102CE000001C00403C070020A8000020114808B547
:102CF000016841F480410160006800F48040009068
:102D00000C48001F016841F08051016000680022FA
:102D100000F0805000900F21901E00F02BF805214C
:102D20000022084600F026F8BDE80840052000F023
:102D300014B800004438024000280DDB00F01F02E8
:102D4000012191404009800000F1E020C0F880118D
:102D5000BFF34F8FBFF36F8F7047002809DB00F080
:102D60001F02012191404009800000F1E020C0F8DD
:102D700000117047F0B40E4B1B680C46C3F30223DE
:102D8000C3F10705042D00D90425191D072901D217
:102D9000002300E0DB1E012606FA05F1491E214052
:102DA00099409E40761E16403143F0BC05F0CDBEE2
:102DB0000CED00E0064900F0070208684FF6FF033B
:102DC000184040EA0220034A1043086070470000A0
:102DD0000CED00E00000FA05704700684162002039
:102DE0007047F0B50368586A39B19C6A4FF482762F
:102DF00000EB144400204D1E0AE040EA02409862B5
:102E00000FE006EB8007DF59401C04EB1744C0B20B
:102E1000A842F6D344EA02404FF4807202EB8101EB
:102E200058500020F0BDD0F8E00404F0E4BD01EB00
:102E3000C10200EB8202D0F8E004126A04F035BD52
:102E400001EBC10200EB8202D0F8E004D2F860226C
:102E500004F087BDD0F8E00404F0CFBD0A0601F00D
:102E60000F0101EBC10100EB810101D5143101E03B
:102E700001F51571006805F0B5BC70B504460B0688
:102E800001F00F0000EBC00104EB81014FF00102E3
:102E90004FF0000502D54A75143103E081F8555210
:102EA00001F51571087094F89404012808D084F88D
:102EB0009424206805F0B0F984F89454002070BD83
:102EC000022070BD70B5044601F00F0022799042D7
:102ED00001D9012070BD0B0601F00F0101EBC1010A
:102EE00004EB81014FF001024FF0000502D54A7555
:102EF000143103E081F8555201F515718D70087099
:102F000094F89404012808D084F89424206805F0EB
:102F1000F5FA84F89454002070BD022070BD01F0D1
:102F20000F0101EBC10100EB8100D0F8680270478E
:102F30002DE9F04104460F0601F00F0000EBC0013F
:102F400004EB81014FF001064FF0000502D54E75EC
:102F5000143103E081F8555201F51571C2F30A02EC
:102F600008708A600B714A7802B14883022B00D145
:102F70004D7194F89404012809D084F89464206871
:102F800005F098F8284684F89454BDE8F0810220B2
:102F9000FBE710B501F00F0404EBC40100EB810165
:102FA000C1E998230023C1F8683281F8553281F8CD
:102FB0005442837901F51571012B00D1CA618279E0
:102FC000006805F0F3FA002010BD70B504460D4608
:102FD00001F00F002179884201D9012070BD290636
:102FE0004FF000064FF0010206D500EBC00104EBE4
:102FF00081014A75143107E005EBC50104EB81013D
:1030000081F8556201F515718A70087094F894047E
:10301000012807D084F89424206805F09BFA28073B
:1030200002D007E0022070BDA17904F29C42206822
:1030300005F038FA84F89464002070BD10B501F0F2
:103040000F0404EBC40100EB8101C1E90823002354
:103050008B6201234B7501F8144F8379012B00D14A
:10306000CA618279006805F0A1FA002010BD000055
:103070002DE9FC5F05680446284605F04FFC002852
:103080007DD1206805F076FC002878D0D5F80808B6
:10309000C0F30D20C4F8D404206805F06BFC800751
:1030A00004D52068416901F002014161206805F002
:1030B00061FCC10604F29C40009034D5206881690F
:1030C00021F0100181612F6A07F00F0000EBC000B2
:1030D00004EB8006C7F3434006F51576022802D0BC
:1030E000062811D01AE047F6F070074216D0C7F351
:1030F0000A1217462846F16805F040FCF06838448B
:10310000F0607069384408E008222846009905F00C
:1031100035FC7069C7F30A11084470612068816941
:1031200041F010018161206805F024FC00034FF09C
:10313000080B4FF0000A4FF001097CD500262068EB
:1031400005F0F7FB074674E0F80770D0F1B220688D
:1031500005F008FC8046C00707D005EB4611C1F812
:10316000089B3146204603F0D5F85FEA087024D565
:1031700005EB4611C1F808BB2068016C00E023E2B2
:1031800000EB46100191D0F8082BFB4B994205D972
:10319000110403D54FF40041C0F8081B204600F08D
:1031A00000FBF5490198884207D9A079012804D18C
:1031B00020680121009A05F075F95FEAC86004D51E
:1031C00005EB46111020C1F8080B5FEA88701DD589
:1031D0006869000605D5D5F8040840F48061C5F893
:1031E000041806EBC60004EB800090F8571200F5B7
:1031F0001570012905D180F803A0F1B2204600F036
:10320000E9F905EB46110220C1F8080B5FEA886076
:1032100004D505EB46102021C0F8081B5FEA884062
:1032200005D505EB46104FF40051C0F8081B7F0888
:10323000761C002F88D1206805F09CFB40036ED5DA
:10324000206805F06FFB0746002666E0F80762D0AD
:10325000F1B2206805F074FB8046C00723D006F069
:103260000F01D5F8342809FA01F18A43C5F834284A
:1032700005EB4611C1F80899A07901280FD106EB9A
:10328000C60004EB8000D0E907211144016236B981
:10329000606A20B920680121009A05F003F9F1B2B3
:1032A0002046FFF7C4FD5FEA087003D505EB461121
:1032B000C1F808B95FEAC86004D505EB46111020D3
:1032C000C1F808095FEA486004D505EB46104021C3
:1032D000C0F808195FEA887016D53146284605F00F
:1032E000F2FA06EBC60004EB8000C17D1430012920
:1032F00005D180F803A0F1B2204600F067F905EB94
:1033000046110220C1F808095FEA086003D531467A
:10331000204603F065F87F08761C002F96D12068C0
:1033200005F028FB002811DAD5F8040820F0010187
:10333000C5F8041894F8CC0401282BD0204600F0DE
:1033400015FA2068416901F000414161206805F0EB
:1033500011FB00050BD5D5F80808C00702D02046A0
:1033600000F048FA2068416901F400614161206879
:1033700005F000FBC00467D5D5F8040820F0010073
:10338000C5F804081021206805F09DFA00214FF6C9
:103390007F3220E084F8CCA400212046FFF71CFDFA
:1033A000CFE700BF05EB4110C0F80829D0F800397D
:1033B00023F40013C0F80039C0F8082BD0F8003B04
:1033C00023F40013C0F8003BD0F8003B43F0006347
:1033D000C0F8003B491C20798842E3D8D5F81C0886
:1033E00040F00111C5F81C18E07B002828460DD0DC
:1033F000D0F8840840F00B01C5F88418D5F84408CB
:1034000040F00B012846C5F844180DE0D0F8140828
:1034100042F22B010843C5F81408D5F8100840F013
:103420000B012846C5F81018D0F8000820F4FE61FA
:10343000C5F80018A1792068009A05F033F82068D3
:10344000416901F480514161206805F093FA8004DC
:1034500015D5206804F06EFE206805F052FAE07180
:1034600000F09AFA0146E279206805F0E5FA204674
:1034700000F066F92068416901F40051416120685B
:1034800005F078FA000707D5204600F073F92068A8
:10349000416901F008014161206805F06BFA0006FE
:1034A00016D5A86920F08001A96101260DE000BFB2
:1034B00006EBC60004EB800090F85702012803D108
:1034C000F1B22046FFF7CAFC761C2079B042EFD853
:1034D000206805F04FFAC0021FD501264F4614E0C0
:1034E00005EB4610D0F8000906EBC60104EB81019C
:1034F0000A7E012A08D1002806DACF75F0B240F022
:1035000080012046FFF7AAFC761C2079B042E7D85C
:103510002068416901F480114161206805F02AFAB0
:10352000800234D501204A4629E000BF05EB401156
:10353000D1F8001B00EBC00304EB830393F858623F
:10354000012E1BD1002919DA94F8D464C1F300418B
:1035500006F001068E4211D183F85722A96941F085
:103560008003AB616969090608D4D5F8040840F402
:103570000070C5F8040805E00A30544F401C21795A
:103580008142D3D82068416901F40011416120686B
:1035900005F0F0F9400007D52046FFF744FC20680D
:1035A000416901F080414161206805F0E3F940077D
:1035B0000AD520684568680702D52046FFF74AFC0F
:1035C0002068416829434160BDE8FC9FD0F8E004D1
:1035D00004F065BAD0F8E00404F075BAF8B5040058
:1035E00005D094F895042668002510B106E0012066
:1035F000F8BD84F89454204600F056F8032084F86F
:103600009504B6F1A04F00D1A571206804F044FFE5
:10361000207C8DF8000094E80F0004F099FD02264C
:10362000B8BB0021206805F0C8F990BB0020012735
:103630000DE000BF00EBC00104EB81014F75087580
:10364000C8850D76CD610D62401CC0B24D622179F6
:103650008142EFD8002011E000EBC00104EB8101B2
:1036600081F8555281F8540281F85852C1F85C52E1
:10367000C1F86052401CC0B2C1F864522179814245
:10368000EAD8207C8DF8000094E80F0004F046FE94
:1036900010B184F89564AAE7657484F8957420687D
:1036A00004F02EFE0020F8BD30B587B0044614218A
:1036B0006846FCF741FF2068B0F1A04F39D11E48A1
:1036C0000024016841F00101016000681B4D00F019
:1036D000010005904FF40070CDE9000469462846CA
:1036E0000294FEF71BFD4FF4C05000900220CDE97C
:1036F0000104032003900A20049069462846FEF73F
:103700000DFD0D48001D016841F0800101600A486F
:103710001430016841F4804101600068002200F427
:103720008040059005214320FFF724FB4320FFF74D
:1037300014FB07B030BD00003038024000000240EA
:1037400070B50446C079012570B1022801D0FDF79B
:10375000CDFB2946D4F8E00404F024FAD4F8E004C0
:10376000BDE8704004F0D8B90025F2E7D0F8E004D5
:1037700004F001BAD0F8E00404F007BA10B504462A
:1037800090F8940401280AD0012084F8940461740C
:10379000206805F040F9002084F8940410BD022050
:1037A00010BDD0F8E02400F29C41104604F006BAA7
:1037B00010B50446006894F89414012909D0012139
:1037C00084F89414C168490609D5617B012902D0A7
:1037D00005E0022010BD816B41F4803181632068D7
:1037E00005F04FF8206804F07DFD002084F8940473
:1037F00010BD000010B50446D0F8E00404F020FA33
:103800002068D0F8001E41F00101C0F8001EE07AE7
:10381000002804D00248016841F00601016010BD93
:1038200010ED00E02DE9F0470E46050065D0DFF809
:103830001481D8F80000F7B200F00700B04207D2B8
:1038400088F80070D8F8000000F00700B04254D1AA
:1038500028683D4C810712D5400703D5206840F405
:10386000E05020602878000703D5206840F46040CD
:1038700020602068A96820F0F000084320602878C4
:10388000C0072DD0304968680839012812D00228B5
:1038900013D0032811D00968890700292DDA21687F
:1038A00021F0030101432160FEF73EFD814641F214
:1038B000883A0EE009688903EFE709688901ECE7B7
:1038C000FEF732FDA0EB0901514502D90320BDE806
:1038D000F0872068696800F00C00B0EB810FEFD131
:1038E000D8F80010404601F00701B14207D907702F
:1038F000006800F00700B04201D00120E7E7287817
:10390000400705D52068E96820F4E05008432060AE
:103910002878000706D52068296920F4604040EA2D
:10392000C100206000F05EF82168084AC1F303116D
:10393000515CC8400649086006480068FFF78AF9EC
:103940000020C4E7003C02400838024030C90008AB
:10395000B0000020A80000200F2202600C4A13686B
:1039600003F003034360136803F0F00383601368FC
:1039700003F4E053C36012684FF4E05303EAD20249
:1039800002610448006800F007000860704700000A
:1039900008380240003C02400148006870470000BF
:1039A000B00000200448054900680968044AC1F3D2
:1039B0008221515CC8407047B000002008380240A6
:1039C00040C900080448054900680968044AC1F371
:1039D0004231515CC8407047B000002008380240B6
:1039E00040C90008154810B5006810F00C021448D2
:1039F00013D01449042A0FD0082A0ED10F4C241FCB
:103A00002268236802F03F025B0207D52068C0F3FA
:103A10008810A0FB010106E0084610BD2168C1F333
:103A20008811A1FB00010023FCF7A0FC2168C1F371
:103A30000141491C4900B0FBF1F010BD08380240BB
:103A40000024F40040787D012DE9F84F04006ED089
:103A50002078DFF84C93C007A9F104054AD009F19A
:103A600004000168C1F38101012908D00068C0F396
:103A7000810002280AD1D9F80000400206D5286842
:103A8000800337D560680028E1D033E06068B0F586
:103A9000803F10D0B0F5A02F286810D020F48030DF
:103AA0002860286820F4802028606068A8B1FEF7AC
:103AB0003BFC06460DE0286840F48030F4E740F413
:103AC00080202860F7E700BFFEF72EFC801B6428EB
:103AD00073D828688003F7D50CE0FEF725FC06466E
:103AE00005E000BFFEF720FC801B6428F0D82868A2
:103AF0008003F7D42078DFF8AC8280074FF0000A0B
:103B00003ED5A748001D016811F00C0F08D00068D1
:103B1000C0F3810002280BD1D9F80000400207D47D
:103B20002868800716D5E068012800D112E033E14B
:103B3000E068B8B10120C8F80000FEF7F5FB0646C2
:103B400005E000BFFEF7F0FB801B0228C0D8286804
:103B50008007F7D52868216920F0F80040EAC10005
:103B600028600DE0C8F800A0FEF7DEFB064604E082
:103B7000FEF7DAFB801B02281FD828688007F7D4DD
:103B80002078000722D5864F87486169703771B168
:103B900001210160FEF7C8FB064604E0FEF7C4FB06
:103BA000801B022809D838688007F7D50EE0C0F8D6
:103BB00000A0FEF7B9FB064605E082E0FEF7B4FB85
:103BC000801B02287DD838688007F7D4207840070A
:103BD00068D5DFF8CCB100270BF13C0BDBF8000017
:103BE000C0000BD4DBF8001041F08051CBF800107E
:103BF000DBF80000012700F0805000906B4E306829
:103C0000C00510D4306840F480703060FEF78CFB43
:103C1000009005E0FEF788FB0099401A022850D872
:103C20003068C005F6D55E4EA0686C3601280FD00E
:103C30000528306810D020F001003060306820F096
:103C400004003060A068B8B1FEF76EFB00900FE092
:103C5000306840F00100F4E740F004003060F7E71E
:103C6000FEF762FB0099411A41F28830814266D822
:103C700030688007F4D50EE0FEF756FB009007E0B1
:103C8000FEF752FB0099411A41F28830814256D822
:103C900030688007F4D42FB1DBF8001021F0805198
:103CA000CBF80010A069C8B33D49091D0968C1F3EC
:103CB000810102294AD00228504607D0C8F8600086
:103CC00000E03CE0FEF730FB04463BE04746C8F826
:103CD0006000FEF729FB064605E000BFFEF724FB67
:103CE000801B02282BD828688001F7D4D4E907016B
:103CF0000843A16A2E4A490802EB0141626A41EA7F
:103D00008211084394F82C1040EA0161C9F80010B0
:103D100001203866FEF708FB044606E03EE000BFDF
:103D2000FEF702FB001B022809D828688001F7D59E
:103D300034E000BFFEF7F8FA001B022802D9032086
:103D4000BDE8F88F28688001F4D427E00128F7D077
:103D5000D9F80000E26900F4800191421CD1226A86
:103D600000F03F01914217D147F6C071626A0140ED
:103D7000B1EB821F10D1A26A4FF0FF3300F4403143
:103D800003EB5202B1EB024F06D194F82C1000F075
:103D90007060B0EB016F01D00120D1E70020CFE7C8
:103DA0000438024000004742800E47420070004045
:103DB0000000FFFF70B50446806C002538B1FDF7A8
:103DC000E5FE20B1606D40F0100060650125E06CFB
:103DD00038B1FDF7DBFE20B1606D40F0100060658A
:103DE00001252068416821F003014160012084F829
:103DF0005100284670BD10B5040011D0022084F88F
:103E000051002068016821F040010160204600F067
:103E1000F3F80020606584F8510084F8500010BD6C
:103E2000012010BDF8B5054600683C49884274D1B0
:103E30006C6DE00702D0192005F0B2FF600702D5D3
:103E4000192005F0ADFF600602D5192005F0A8FF86
:103E5000A0074FF6EF7604D5192005F0A1FF2868DA
:103E60008660E00602D5192005F09AFFA00615D558
:103E700028688468A00702D5192005F091FF200664
:103E800002D5192005F08CFFE00602D5192005F0B7
:103E900087FF600602D5192005F082FF204C2068BC
:103EA0008168C1F303110F290AD1C16881680091AB
:103EB0008660206881680091016821F040010160FE
:103EC0001748FFF777FF1648FFF795FF1548016879
:103ED00041F400410160016821F400410160104893
:103EE00000F024F82068016821F400510160206886
:103EF000016841F40051016004F0FAFE054604F047
:103F0000E3FE044604F0FCFE01B02B462246BDE869
:103F1000F0400146024800F017B9F8BD003C0040EF
:103F2000CC03002020380240406D704770B504007B
:103F300008D0606A002538B12561656194F85100A8
:103F400040B10CE0012070BD6068B0F5827FF5D013
:103F5000E561F3E784F85050204600F073F8022042
:103F600084F851002068016821F040010160A088B8
:103F7000218900F4827001F404410843A18901F40D
:103F800000610843217C01F002010843217D01F01A
:103F900001010843218B01F400710843217F01F0E6
:103FA0003801084394F8201001F080010843218D66
:103FB00001F40051084321680860A069042101EA66
:103FC000104094F8241001F0100108432168486063
:103FD000A06AB0F5005F03D1A08D216880B20861AE
:103FE0002068C16921F40061C1616565012084F820
:103FF0005100002070BD000010B5044600680D4956
:10400000884216D10C48016821F4004101604FF448
:1040100000410A48FDF7CEFF4FF4E0510848FDF794
:10402000C9FFE06CFDF70DFEA06CBDE81040FDF788
:1040300008BE10BD003C0040403802400000024075
:10404000000802402DE9F04186B00646142168467A
:10405000FCF772FA35493068884263D1344800244D
:10406000016841F400410160006800F400400590DF
:104070002F481038016841F001010160016801F02A
:1040800001010591016841F0040101600068022509
:1040900000F0040005904FF40040CDE9000502AAAD
:1040A00003274FF0060882E8900169462148FEF791
:1040B00035F84FF4E050CDE9000502AA694682E8E0
:1040C00090011D48FEF72AF81D4D1C484FF400389A
:1040D000C5E900040715AC60C5E903476C61AC6134
:1040E000C5E9074828466C62FDF7B0FE08B1FCF749
:1040F000FDFEF564AE63124D104860357830E5E89A
:104100000204402091C50E4845F814496030AC6166
:10411000C5E907486C62FDF799FE08B1FCF7E6FEB9
:10412000B564AE6306B0BDE8F0810000003C00401D
:104130004038024000000240000802401060024087
:10414000240400207047704770B5044690F8510071
:104150006568012806D0B5F5827F25D1A5681DBB0D
:10416000042821D1F1B1EAB1E3B194F8500001285B
:104170001AD0012084F8500094F85100042802D08D
:10418000052084F85100002565652163A386E38638
:10419000A263A387E38725646564A06AB0F5005F26
:1041A00004D00DE0012070BD022070BD20680168C0
:1041B00021F4005101602068016841F40051016060
:1041C00094F85100042813D0E16C25480864254870
:1041D000E16CC863E16C2448C864E06C0565E38F5A
:1041E0002168A26B0C31E06CFDF79AFED0B904E0B7
:1041F000E16C1E4808641E48EAE72068416841F007
:1042000001014160A06C0564A06CC563A06CC5642D
:10421000A06C0565E38E2268216B0C32A06CFDF763
:104220007FFE30B1606D40F01000606584F8505042
:10423000B8E720680168490603D4016841F04001ED
:10424000016084F850502068416841F020014160CD
:104250002068416841F002014160002070BD00000B
:10426000B16400086565000885640008A76400085B
:10427000BB64000870B5044600682449884243D1F5
:1042800004F04AFD2046FFF74FFE800714D5204674
:10429000FFF790FD2046FFF7AEFD1D48016841F491
:1042A00000410160016821F4004101601948FFF7F5
:1042B0003DFE04F0C9FE05E004F08CFE10B10E20B6
:1042C00005F06EFD2068016821F40051016020684E
:1042D000016841F40051016004F00AFD064604F053
:1042E000F3FC054604F00CFD014633462A46204601
:1042F000FFF72AFF10B1192005F052FDBDE870400C
:1043000020210548FEF702B870BD0000003C0040C7
:1043100020380240CC03002000080240704770475C
:10432000704710B5040003D094F83D0010B107E0C9
:10433000012010BD002084F83C00204600F01EF84B
:10434000022084F83D00211D206802F0BBFB012003
:1043500084F8460084F83E0084F83F0084F840006A
:1043600084F8410084F8420084F8430084F8440053
:1043700084F8450084F83D00002010BD704700001F
:1043800090F83D10012901D001207047022180F8EA
:104390003D100168CA6842F00102CA600068114914
:1043A000884214D0B0F1804F11D00F4988420ED00E
:1043B0000E4988420BD00E49884208D00D498842E8
:1043C00005D00D49884202D00C49884204D1816849
:1043D00001F00701062903D0016841F001010160E5
:1043E0000020704700000140000400400008004029
:1043F000000C004000040140004001400018004053
:1044000070472DE9F04104460068C66805694FF021
:104410000007A90713D5B10711D5F91E01610120C5
:104420002077206880698007204602D0FFF7E8FFE8
:1044300004E000F07EF8204600F07CF8277768075B
:1044400016D5700714D521686FF0040008610220AA
:1044500020772068806910F4407F204602D0FFF763
:10446000CFFF04E000F065F8204600F063F82777FE
:10447000280715D5300713D521686FF008000861AB
:10448000042020772068C0698007204602D0FFF70B
:10449000B7FF04E000F04DF8204600F04BF8277716
:1044A000E80616D5F00614D521686FF010000861F3
:1044B000082020772068C06910F4407F204602D091
:1044C000FFF79EFF04E000F034F8204600F032F8D9
:1044D0002777E80708D0F00706D021686FF00100C1
:1044E0000861204600F028F8280608D5300606D5D1
:1044F00021686FF0800008612046FFF710FF680612
:1045000008D5700606D521686FF040000861204686
:1045100000F01CF8A8060AD5B00608D521686FF08F
:10452000200008612046BDE8F041FFF7F9BEBDE874
:10453000F08170477047000000680349884201D14C
:10454000FEF766BB70470000001C0040704738B59E
:10455000044690F84200202801D0022038BD51B115
:104560004AB10120206300206063204602F0D2FCA3
:10457000216B012901D0012038BD21680A684968F2
:10458000009121680C3151E8002F42F0100241E8FF
:104590000023002BF5D138BD10B500681E4A9042AB
:1045A00018D1084604F0B6FC10B1142005F0F8FB51
:1045B000002220211948FDF7B1FE04F07DFB0446DE
:1045C00004F052FB014622461548FFF7C0FF14488D
:1045D000D8301AE0134A90421CD1084604F0CAFCB5
:1045E00010B1142005F0DCFB002208210E48FDF775
:1045F00095FE04F061FB044604F04AFB01460848BE
:1046000022469030FFF7A3FF08480068016821F0B8
:104610000801016010BD00000010014000040240CC
:10462000E404002000140140000C0240DC060020DD
:1046300010B5040015D0242084F841002068C1681A
:1046400021F40051C160204600F080F90020606430
:1046500084F8410084F8420044F8300F6060207410
:1046600010BD012010BD7047F8B501680446086808
:10467000CA684B6910F00F0F4FF0000559D003F0D6
:10468000010602F49077374365D0C10705D0D10504
:1046900003D5616C41F001016164410705D5D9077B
:1046A00003D0616C41F002016164810705D5D9072F
:1046B00003D0616C41F004016164010707D502F089
:1046C0002001314303D0616C41F008016164616CE9
:1046D00000293AD0800604D5900602D5204602F083
:1046E00032FB20684069616CC0F38010090700D478
:1046F00060B3204602F0F2FA20684069400621D5F6
:104700002068143050E8001F21F0400140E80012FA
:10471000002AF5D1E06BA8B172490165E06BFDF7A5
:104720007EFA002811D0E06B016D01B0BDE8F040C9
:10473000084783060FD593060DD52046BDE8F840FF
:1047400002F001BB2046FFF78EFFF8BD2046FFF7C1
:104750008AFF6564F8BD266B2023012E7ED1C60634
:104760007CD5D6067AD508684868009048694FF02D
:10477000020640064DD5E26B106840684FF4807722
:104780000004000C3AD0A18D814237D9E085D06970
:10479000B8422DD020680C3050E8001F21F4807101
:1047A00040E80012002AF5D12068143050E8001FBC
:1047B00021F0010140E80012002AF5D120681430F0
:1047C00050E8001F21F0400140E80012002AF5D116
:1047D00084F84230256320680C3050E8001F21F037
:1047E000100140E80012002AF5D1E06BFDF7CEF988
:1047F0006663A08DE18D401A81B206E0A18D8142F1
:10480000A8D1D069B842A5D166632046FFF7C4FE9F
:10481000F8BDA08DE18D401A81B2E08D0028F7D05F
:104820000029F5D020680C3050E8002F22F4907257
:1048300040E80027002FF5D12068143050E8002F01
:1048400022F0010240E80027002FF5D184F8423021
:10485000256320680C3050E8002F00E006E022F0CD
:10486000100240E80023002BF3D1CDE705062BD53D
:10487000150629D594F841002128C9D1A068B0F5C2
:10488000805F01D12069B0B1206A411C216221689A
:1048900000784860E08C401E0004000CE084B7D132
:1048A0002068C16821F08001C1602068C16841F0C2
:1048B0004001C160F8BD206A0088C0F3080048606C
:1048C000206A801C2062E5E74006F3D55006F1D54A
:1048D000CA68204622F04002CA6084F8413000F0E5
:1048E000FDF9F8BD956B000870B5040004D094F88C
:1048F0004100002510B106E0012070BD84F8405051
:10490000204600F06FF8242084F841002068C16838
:1049100021F40051C160204602F076FA2068016956
:1049200021F4904101612068416921F02A0141612F
:104930002068C16841F40051C1606564202084F89A
:10494000410084F842006563002070BD10B5044644
:104950001D4A01681D4891420CD1016821F01001E7
:104960000160C0211A48FDF725FBE06BFDF769F9EE
:10497000252024E0174A914212D11448001F0168F3
:1049800021F4802101604FF440711348FDF712FBC0
:10499000E06BFDF756F9A06BFDF753F927200EE009
:1049A0000E4A91420FD1016821F020010160C0211F
:1049B0000B48FDF7FFFAE06BFDF743F94720BDE830
:1049C0001040FEF7B9B910BD001001404438024054
:1049D0000004024000480040000C02400014014066
:1049E000000802402DE9F04F87B0044614216846C4
:1049F000FBF7A2FD8048DFF8FC8114380221236810
:104A0000DFF8F4C10322002506150F044FF0C0099A
:104A10004FF0010A4FF0070B43453ED1DCF8003060
:104A200043F01003CCF80030DCF8003003F0100342
:104A30000593036843F0020303600068CDE9009129
:104A400000F00200CDE904B0CDE902A269466B484E
:104A5000FDF764FBDFF8AC8169494046C8F80010F7
:104A60007104C0E90115C0E90356C8F81450C8F82C
:104A70001850C8E90757C8F82450FDF7E7F908B1FE
:104A8000FCF734FAC4F83C80002205212520C8F840
:104A90003840FEF76FF9252060E0DFF86C81434570
:104AA00061D1554B1B1FD3F800C04CF4802CC3F8C8
:104AB00000C01B6803F480230593036843F00803D8
:104AC0000360006800F0080005904FF440708DE826
:104AD0002300CDE9032B69464C48FDF71FFBDFF8A7
:104AE00024814B4908F160084046C8F800104FF097
:104AF0000061C0E90115C0E90356C8F81450C8F8B0
:104B00001850C8E90757B946C8F82450FDF79EF970
:104B100008B1FCF7EBF93B4F3D48C4F83C80C03787
:104B20004830C8F8384038604005786007F108011F
:104B3000402081E861007D61BD61C7E907593846C1
:104B40007D62FDF783F908B1FCF7D0F9A763002275
:104B500005212720BC63FEF70DF92720FEF7FDF89D
:104B600007B0BDE8F08FDFF8AC804345F8D1DCF842
:104B7000003043F02003CCF80030DCF8003003F0C4
:104B800020030593036843F0040303600068CDF835
:104B900008A000F004000590CDE900910820CDE9BF
:104BA000032069461C48FDF7B9FA1549DFF86C8007
:104BB00018394046C8F800108905C0E90115C0E958
:104BC0000356C8F81450C8F81850C8E90757C8F871
:104BD0002450FDF73BF908B1FCF788F9C4F83C8094
:104BE000002205214720C8F83840FEF7C3F84720C7
:104BF000B4E70000001001404438024000040240C5
:104C000040640240BC05002000480040000C024007
:104C1000286002400014014000080240DC06002029
:104C20007047704770B5044690F84100202801D0C5
:104C3000022070BD01B3FAB12162A284E284002097
:104C40006064212384F84130A56B144BEB63A56BA2
:104C5000134B2B64A56B134BEB64A36B1865206897
:104C60001346A56B021D2846FDF75AF930B11020F6
:104C70006064202084F84100012070BD21686FF03D
:104C8000400008602068143050E8001F41F08001A7
:104C900040E80012002AF5D1002070BD916C000898
:104CA000D36C0008A36B000890F84130202B01D092
:104CB0000220704779B172B101628284C2840021FE
:104CC0004164212180F841100068C16841F08001F1
:104CD000C1600020704701207047000010B50068D7
:104CE0001949884213D104F0D7F90022202117482E
:104CF000FDF714FB03F0E0FF044603F0B5FF0146A7
:104D000022461348FFF723FC1148D83015E011491B
:104D1000884217D104F0CCF9002208210E48FDF793
:104D2000FDFA03F0C9FF044603F0B2FF014608484C
:104D300022469030FFF70BFC08480068016821F01C
:104D40000801016010BD0000001001400004024095
:104D5000E404002000140140000C0240DC060020A6
:104D60007047FEE70148FDF7F9BA0000B8020020DD
:104D70000148FDF750BB0000B802002038B5806B39
:104D8000002190F83D202B4B46F2A8141B68B3FB82
:104D9000F4F3C3EBC30303EB830300933BB15B1E4C
:104DA000009303681B689B0505D5009BF6E7036C21
:104DB00043F020030364436B03B1D963836B03B1F6
:104DC000D96303681C6824F480641C604185436BCC
:104DD00003B11965836B03B1196503681C6824F07E
:104DE00001041C6090F83D402023602C0BD0282447
:104DF00034EA02020FD080F83D3080F83E1000BF48
:104E0000FDF721FC38BD80F83D3080F83E1001648C
:104E1000FDF7A2FA38BD0268136843F0010313607E
:104E20000268136843F480631360016380F83D40B7
:104E3000E6E70000B000002000684169C9430906A8
:104E400001D400210161704770B5044690F83D001F
:104E500094F83E10102901D0402906D1222804D10F
:104E600021680A6822F400620A60282131EA0002FF
:104E70004FF000054FF0200626D02168496809054B
:104E800005D4602803D084F83D6084F83E50256343
:104E900020684168090537D5416821F40061416007
:104EA000606B90F835203C49012A11D00165606B98
:104EB000FCF7B5FE38B32068016821F001010160FC
:104EC00084F83D60606B1CE0256384F83D10DFE7EB
:104ED000A06B0165A06BFCF7A2FEA0B12068416940
:104EE000C943490605D40069616A0870606A401CBC
:104EF00060622068016821F00101016084F83D6072
:104F0000A06B016D884710E094F83D10602910D027
:104F10004169C943490605D40069616A0870606A3D
:104F2000401C60622046FDF78EFB206CC1071CD13F
:104F300015E084F83D6025644169C943490605D4FC
:104F40000069616A0870606A401C606220680168DC
:104F500021F0010101602046FDF7FEF9E5E7810738
:104F600003D4410701D4000704D52068416821F427
:104F7000E061416094F83D00216C49070BD5282879
:104F800009D10648E062256384F83D6084F83E500C
:104F90002046FDF71DFC70BD7D4D00080000FFFFA1
:104FA00001684A69D24352050FD46FF480624A61A6
:104FB000002140F8301F202242738173026942F0C1
:104FC000040202610173012070470020704710B590
:104FD000C26A438D0168042B06D0438D032B08D091
:104FE000438D022B1DD012E04A6822F480624A6091
:104FF0000CE04B6823F480634B60042A06D0022A3D
:1050000004D001680A6822F480620A6001680969B4
:10501000426A1170416A491C4162418D491E4185B5
:1050200010BD012A34D0102A32D0042A34D0022AEA
:1050300032D00B6843F400730B6001680969436A5E
:105040001970416A491C4162438D5B1E43850368A8
:105050001B690B70416A491C4162418D491E4185A3
:1050600001684B6823F440734B60202180F83D10A9
:1050700090F83E300021402B80F83E1010D0082AD6
:1050800002D0202A00D012210163FDF7A2FB10BD3F
:105090000B6823F48063CFE70B6843F48063CBE7AE
:1050A0000163FDF798FB10BD38B590F83D1022293B
:1050B00010D1C36A418D03290DD901680969426A7B
:1050C0001170416A491C4162418D491E4185418DE3
:1050D000032906D038BDC26A022A02D0012906D0AF
:1050E00029B10068416821F48061416038BD2A4AD5
:1050F00046F2A81400211268B2FBF4F202EB82021D
:10510000009202682024009D6D1E009526D015682F
:10511000AD05F8D4156825F48065156002685568FA
:1051200025F4E065556002681269456A2A70426A92
:10513000521C4262428D521E428580F83D4090F8DA
:105140003E2080F83E10402A21D0082B02D0202B90
:1051500000D012210163FDF73CFB38BD036C43F026
:1051600020030364536823F4E06353600268126908
:10517000436A1A70426A521C4262428D521E428534
:1051800080F83D4080F83E10FDF75DFA38BD0163C0
:10519000FDF721FB38BD0000B000002010B5C26A49
:1051A00090F83D1021290BD1418D51B1416A02681F
:1051B00009781161416A491C4162418D491E41854E
:1051C00010BD20230021082A13D0202A11D012F567
:1051D000803F0ED00268546824F4E06454601122C9
:1051E000026380F83E1080F83D3000BFFDF7F2FA10
:1051F00010BD0268546824F4E064546002681468C6
:1052000044F400741460016380F83D3090F83E204F
:1052100080F83E10402AE9D1FDF7DEFA10BD00000B
:1052200010B590F83D1090F83E30C26A048DB4B1CC
:10523000212903D0402B11D122290FD1418DE1B377
:1052400090F83E10402942D0416A02680978116105
:10525000416A491C4162418D491E418510BD212989
:10526000E8D120230021082A13D0202A11D012F5DA
:10527000803F0ED00268546824F4E0645460112228
:10528000026380F83E1080F83D3000BFFDF7A2FABF
:1052900010BD0268546824F4E06454600268146825
:1052A00044F400741460016380F83D3090F83E20AF
:1052B00080F83E10402AE9D100E002E0FDF78CFAC8
:1052C00010BD0068416821F48061416010BDBDE8F7
:1052D000104000F0D3B8000078B590F83E50C26A94
:1052E000036B90F83D6000240168222E7AD1066D90
:1052F0000EB9402D76D0056D1DB90569B5F5404F45
:1053000009D0458D05B3468D384D012E0ED0438D05
:10531000022B3AD05DE04A698A6900920A6842F439
:1053200080720A60016D491C016578BDAA4213D1E3
:105330000A6822F480620A6001684A68120503D58F
:105340000A6822F4806216E04A698A6900920A6853
:1053500042F400720A6039E0082A10D0202A0ED0E8
:10536000122B0AD0042A03D0022A01D0102AE7D136
:105370000A6842F480620A6024E0012AE0D00A68E8
:1053800022F480620A600168DEE7042A21D0022A42
:105390001FD0102A1DD00B6823F480630B600168B6
:1053A0000B6843F400630B6001684B681B0509D56B
:1053B000AA4212D0012A10D0082A0ED0102A0CD0EE
:1053C000202A0AD001684A6989690091046578BD7C
:1053D00008E00B6843F48063E5E74A6842F48052D2
:1053E0004A60EFE7486988690090F0E70000FFFF36
:1053F00090F83E10402910D00169B1F5804F19D0C6
:10540000016DA9B3016D012910D1416C5FF0F1026A
:1054100001F4407142EAD11106E0016D0029416CAE
:1054200005D0C9B241F0010100680161704701F087
:10543000FE01F9E790F83D102129416C09D0C9B26D
:1054400041F0010102681161416B29B1C96B49B991
:1054500002E001F0FE01F5E7816B0029E6D0C96B9F
:105460000029E3D00068416841F400614160704761
:10547000FFE7416CF02201F44071CBE710B590F8E2
:105480003D10026D4AB1026D012A14D0026D022A4C
:1054900016D0BDE81040FFF7CFBCC16C0129816C6C
:1054A00002D0C1F3072108E00268C9B21161016DA1
:1054B000891C016510BD816CC9B20268116123E0CD
:1054C00022291CD0428D0AB1212920D0428D002AE8
:1054D000F0D12129EED101684A6822F4E0624A60E5
:1054E00001680A6842F400720A6000210163202208
:1054F00080F83D2080F83E10FDF76EF910BD016880
:105500000A6842F480720A60016D491CD1E7416A61
:10551000026809781161416A491C4162418D491E46
:10552000418510BD2DE9F84F0446006889460B9D62
:1055300001689846174641F480610160206801685F
:1055400041F48071016000954FF0011B0022594623
:1055500020460A9B00F0FEF94FF4007A40B1206823
:105560000068C00501D5C4F840A00320BDE8F88F4D
:10557000216809F0FE0008612B46284920460A9A56
:1055800000F030FAF0BB20684169806900902A463B
:1055900020460A9900F0BCFA40B1206C04283AD1A8
:1055A0002068016841F40071016034E0FEB2B8F196
:1055B000010F09D02168380A08612A4620460A9955
:1055C00000F0A6FA0028E8D1206806612A462046A5
:1055D0000A9900F09DFA0028DFD12068016841F4A3
:1055E0008071016000950022594620460A9B00F018
:1055F000B1F90028B3D1216809F0FF0040F00100A3
:10560000086100E007E02B46044920460A9A00F0B2
:10561000E9F90028AAD00120A8E700000200010053
:105620002DE9F843044600680D46DDE90897016856
:105630009846164641F4807101604B4600224FF0B7
:1056400001112046009700F085F948B120680068F4
:10565000C00502D54FF4007020640320BDE8F88334
:10566000216805F0FE0008613B464A461549204680
:1056700000F0B8F988B920684169806900903A461D
:105680004946204600F044FA48B1206C042804D171
:105690002068016841F4007101600120DEE7F5B285
:1056A000B8F1010F09D02168300A08613A4649462D
:1056B000204600F02DFA0028E7D12068056100207F
:1056C000CCE700000200010038B50C4690F83D2000
:1056D00000212825954302680B4605D05169916940
:1056E000009180F83C3038BD556825F480655560E0
:1056F000E243540700D50121120601D5828900E05A
:10570000028B80F83C3092B2FCF727FE38BD0000D7
:105710002DE9F04190F83D300446C26A0021202670
:105720001E4F00686FF48065082A01D0202A01D13D
:10573000282B04D0212B17D04561BDE8F081E7620A
:10574000426822F4E0624260206845612068026895
:1057500022F480620260216384F83D6084F83E1088
:105760002046FDF735F8E8E7E7622122226384F856
:105770003D6084F83E10416821F4E061416020689A
:1057800045612068016821F4806101602046FFF7CF
:1057900053FB2046FDF73BFACFE700000000FFFF78
:1057A000F8B590F83D6004460068416821F4E06176
:1057B00041602068002541690091016841F00101C4
:1057C00001602068016821F48061016020684168FF
:1057D000090520D5474F222E48D02A2E46D0616B8E
:1057E000096849686185618D19B1216C41F0040136
:1057F0002164416821F400614160606BFCF752FA5A
:10580000012808D0606B0765606BFCF708FA10B1DF
:10581000606B016D8847608D08B320684169C9439A
:10582000490708D40069616A0870606A401C6062B8
:10583000608D401E608520684169C943490608D4CF
:105840000069616A0870606A401C6062608D401E79
:105850006085608D18B1206C40F004002064206CDD
:1058600000B32046BDE8F840FFF7EEBAA16B096827
:1058700049686185618D19B1216C41F00401216491
:10588000416821F400614160A06BFCF70BFA01282C
:10589000C1D0A06B0765A06BFCF7C1F90028BAD096
:1058A000A06BB6E72A2E06D12563282084F83D0098
:1058B0002046FDF7ABF994F83D10202028290DD0A3
:1058C000216B222901D0222E07D1256384F83D00C7
:1058D00084F83E502046FDF799F9F8BD0649E1628B
:1058E000256384F83D0084F83E502046FCF770FFA5
:1058F000F8BD00007D4D00080000FFFF70B51646A2
:105900000D4604461EE02046FFF74AFB08B1012081
:1059100070BD681C16D0FCF707FD801BA84200D89C
:1059200085B920684069C04340070BD5002044F882
:10593000300F20216173A073216941F020012161A2
:105940002073E4E720684069C0434007DBD40020AF
:1059500070BD00002DE9F047984617460D460446F5
:10596000C1F30746DDF820902AE000BFB8F1FF3F01
:1059700026D0FCF7D9FCA0EB0901414502D8B8F1CB
:10598000000F1DD12068012E16D0806925EA000085
:105990000004000C12D00020B84211D1002044F8BD
:1059A000300F20216173A073216941F02001216132
:1059B00020730120BDE8F0874069E7E70120EBE7AD
:1059C0002068012E0AD0806925EA00000004000C3E
:1059D00006D00020B842C9D00020EBE74069F3E7C9
:1059E0000120F7E72DE9F047984616460D46044694
:1059F0004FF000094FF0200AC1F3074723E0206869
:105A00004069C043400515D42068016841F4007125
:105A1000016021686FF480604861C4F8309084F8B8
:105A20003DA084F83E90216C41F00401216484F88B
:105A30003C9021E0701C06D0FCF776FCA0EB08003F
:105A4000B04203D816B1012F1FD021E02068012FEA
:105A500015D0806925EA00000004000C18D000BFB2
:105A600044F8309F84F80DA084F80E90216941F02D
:105A70002001216184F80C900120BDE8F087406985
:105A800025EA00000004000CEAD12068406901E02A
:105A90002068806925EA00000004000CAFD1ECE723
:105AA0002DE9F041002590460E460446202728E0C7
:105AB0004069C043C0060CD454F8301B6FF010008E
:105AC000486144F810596777A577206A20622577E6
:105AD00014E0FCF729FCA0EB0800B04200D886B91E
